:020000040000fa
:080000000002040000000000f2
:020000040000fa
:04000800c80200002a
:020000040000fa
:04000c00e00500000b
:020000040000fa
:04001000f2050000f5
:020000040000fa
:04001400e8050000fb
:020000040000fa
:04001800fa050000e5
:020000040000fa
:04001c00c802000016
:020000040000fa
:04002000c802000012
:020000040000fa
:04002400c80200000e
:020000040000fa
:04002800c80200000a
:020000040000fa
:04002c00c802000006
:020000040000fa
:04003000c802000002
:020000040000fa
:04003400c8020000fe
:020000040000fa
:04003800c8020000fa
:020000040000fa
:04003c00c8020000f6
:020000040000fa
:04004000c8020000f2
:020000040000fa
:04004400c8020000ee
:020000040000fa
:04004800c8020000ea
:020000040000fa
:04004c00c8020000e6
:020000040000fa
:04005000c8020000e2
:020000040000fa
:04005400c8020000de
:020000040000fa
:04005800c8020000da
:020000040000fa
:04005c00c8020000d6
:020000040000fa
:04006000c8020000d2
:020000040000fa
:04006400c8020000ce
:020000040000fa
:04006800c8020000ca
:020000040000fa
:04006c00c8020000c6
:020000040000fa
:04007000c8020000c2
:020000040000fa
:04007400680500001b
:020000040000fa
:04007800c8020000ba
:020000040000fa
:04007c00c8020000b6
:020000040000fa
:04008000c8020000b2
:020000040000fa
:04008400c8020000ae
:020000040000fa
:04008800c8020000aa
:020000040000fa
:04008c00c8020000a6
:020000040000fa
:04009000c8020000a2
:020000040000fa
:04009400c80200009e
:020000040000fa
:04009800c80200009a
:020000040000fa
:04009c00c802000096
:020000040000fa
:0400a000c802000092
:020000040000fa
:0400a400c80200008e
:020000040000fa
:0400a800c80200008a
:020000040000fa
:0400ac00c802000086
:020000040000fa
:0400b000c802000082
:020000040000fa
:0400b400c80200007e
:020000040000fa
:0400b800c80200007a
:020000040000fa
:0400bc00c802000076
:020000040000fa
:0400c000c802000072
:020000040000fa
:0400c400c80200006e
:020000040000fa
:0400c800c80200006a
:020000040000fa
:0400cc00c802000066
:020000040000fa
:0400d000c802000062
:020000040000fa
:0400d400c80200005e
:020000040000fa
:0400d800c80200005a
:020000040000fa
:0400dc00c802000056
:020000040000fa
:0400e000c802000052
:020000040000fa
:0400e400c80200004e
:020000040000fa
:0400e800c80200004a
:020000040000fa
:0400ec00c802000046
:020000040000fa
:0400f000c802000042
:020000040000fa
:0400f400c80200003e
:020000040000fa
:0400f800c80200003a
:020000040000fa
:0400fc00c802000036
:020000040000fa
:04010000c802000031
:020000040000fa
:04010400c80200002d
:020000040000fa
:04010800c802000029
:020000040000fa
:04010c00c802000025
:020000040000fa
:04011000c802000021
:020000040000fa
:04011400c80200001d
:020000040000fa
:04011800c802000019
:020000040000fa
:04011c00c802000015
:020000040000fa
:04012000c802000011
:020000040000fa
:04012400c80200000d
:020000040000fa
:04012800c802000009
:020000040000fa
:04012c00c802000005
:020000040000fa
:04013000c802000001
:020000040000fa
:04013400c8020000fd
:020000040000fa
:04013800c8020000f9
:020000040000fa
:04013c00c8020000f5
:020000040000fa
:04014000c8020000f1
:020000040000fa
:04014400c8020000ed
:020000040000fa
:04014800c8020000e9
:020000040000fa
:04014c00c8020000e5
:020000040000fa
:04015000c8020000e1
:020000040000fa
:04015400c8020000dd
:020000040000fa
:04015800c8020000d9
:020000040000fa
:04015c00c8020000d5
:020000040000fa
:04016000c8020000d1
:020000040000fa
:04016400c8020000cd
:020000040000fa
:04016800c8020000c9
:020000040000fa
:04016c00c8020000c5
:020000040000fa
:04017000c8020000c1
:020000040000fa
:04017400c8020000bd
:020000040000fa
:04017800c8020000b9
:020000040000fa
:04017c00c8020000b5
:020000040000fa
:04018000c8020000b1
:020000040000fa
:04018400c8020000ad
:020000040000fa
:04018800c8020000a9
:020000040000fa
:04018c00c8020000a5
:020000040000fa
:04019000c8020000a1
:020000040000fa
:04019400c80200009d
:020000040000fa
:04019800c802000099
:020000040000fa
:04019c00c802000095
:020000040000fa
:04020800c802000028
:020000040000fa
:04020c00c802000024
:020000040000fa
:04021000c802000020
:020000040000fa
:04021400c80200001c
:020000040000fa
:04021800c802000018
:020000040000fa
:04021c00c802000014
:020000040000fa
:04022000c802000010
:020000040000fa
:04022400c80200000c
:020000040000fa
:04022800c802000008
:020000040000fa
:04022c00c802000004
:020000040000fa
:04023000c802000000
:020000040000fa
:04023400c8020000fc
:020000040000fa
:04023800c8020000f8
:020000040000fa
:04023c00c8020000f4
:020000040000fa
:04024000c8020000f0
:020000040000fa
:04024400c8020000ec
:020000040000fa
:04024800c8020000e8
:020000040000fa
:04024c00c8020000e4
:020000040000fa
:04025000c8020000e0
:020000040000fa
:04025400c8020000dc
:020000040000fa
:04025800c8020000d8
:020000040000fa
:04025c00c8020000d4
:020000040000fa
:04026000c8020000d0
:020000040000fa
:04026400c8020000cc
:020000040000fa
:04026800c8020000c8
:020000040000fa
:04026c00c8020000c4
:020000040000fa
:04027000c8020000c0
:020000040000fa
:04027400c8020000bc
:020000040000fa
:04027800c8020000b8
:020000040000fa
:04027c00c8020000b4
:020000040000fa
:04028000c8020000b0
:020000040000fa
:04028400c8020000ac
:020000040000fa
:04028800c8020000a8
:020000040000fa
:04028c00c8020000a4
:020000040000fa
:04029000c8020000a0
:020000040000fa
:04029400c80200009c
:020000040000fa
:04029800c802000098
:020000040000fa
:04029c00c802000094
:020000040000fa
:0402a000c802000090
:020000040000fa
:0402a400c80200008c
:020000040000fa
:0402a800c802000088
:020000040000fa
:0402ac00c802000084
:020000040000fa
:0402b000c802000080
:020000040000fa
:0402b400c80200007c
:020000040000fa
:0402b800c802000078
:020000040000fa
:0402bc00c802000074
:020000040000fa
:0402c000c802000070
:020000040000fa
:0402c400c80200006c
:020000040000fa
:0402c800c802000068
:020000040000fa
:0402cc00c802000064
:020000040000fa
:0402d000c802000060
:020000040000fa
:0402d400c80200005c
:020000040000fa
:0402d800c802000058
:020000040000fa
:0402dc00c802000054
:020000040000fa
:0402e000c802000050
:020000040000fa
:0402e400c80200004c
:020000040000fa
:0402e800c802000048
:020000040000fa
:0402ec00c802000044
:020000040000fa
:0402f000c802000040
:020000040000fa
:0402f400c80200003c
:020000040000fa
:0402f800c802000038
:020000040000fa
:0402fc00c802000034
:020000040000fa
:04030000c80200002f
:020000040000fa
:04030400c80200002b
:020000040000fa
:04030800c802000027
:020000040000fa
:04030c00c802000023
:020000040000fa
:04031000c80200001f
:020000040000fa
:04031400c80200001b
:020000040000fa
:04031800c802000017
:020000040000fa
:04031c00c802000013
:020000040000fa
:04032000c80200000f
:020000040000fa
:04032400c80200000b
:020000040000fa
:04032800c802000007
:020000040000fa
:04032c00c802000003
:020000040000fa
:04033000c8020000ff
:020000040000fa
:04033400c8020000fb
:020000040000fa
:04033800c8020000f7
:020000040000fa
:04033c00c8020000f3
:020000040000fa
:04034000c8020000ef
:020000040000fa
:04034400c8020000eb
:020000040000fa
:04034800c8020000e7
:020000040000fa
:04034c00c8020000e3
:020000040000fa
:04035000c8020000df
:020000040000fa
:04035400c8020000db
:020000040000fa
:04035800c8020000d7
:020000040000fa
:04035c00c8020000d3
:020000040000fa
:04036000c8020000cf
:020000040000fa
:04036400c8020000cb
:020000040000fa
:04036800c8020000c7
:020000040000fa
:04036c00c8020000c3
:020000040000fa
:04037000c8020000bf
:020000040000fa
:04037400c8020000bb
:020000040000fa
:04037800c8020000b7
:020000040000fa
:04037c00c8020000b3
:020000040000fa
:04038000c8020000af
:020000040000fa
:04038400c8020000ab
:020000040000fa
:04038800c8020000a7
:020000040000fa
:04038c00c8020000a3
:020000040000fa
:04039000c80200009f
:020000040000fa
:04039400c80200009b
:020000040000fa
:04039800c802000097
:020000040000fa
:04039c00c802000093
:020000040000fa
:100400006f8220000e7f24000e0188000000000093
:10041000000020000000e000020032000001200087
:1004200020028800140007005b0007000000e000c5
:1004300003003a00006420000100200002003700a1
:100440000000200001002000810f70000100320038
:1004500014000700000020000000e000020032004d
:10046000000002000000000056060200000000002c
:100470000040da000000fe004440a9000000200017
:100480000000e0000300320000002000a00188000e
:100490004440a800000006008a1f78008b1f7800e7
:1004a0000000060091018800800478000000eb0045
:1004b0001a003700e284440032a0b4009905ba0063
:1004c000e284440032a0b4009906ba00e2844400f9
:1004d00032a0b4000006eb00476fde00fd07b2005b
:1004e000636ce10003003a00ebff07000000eb0043
:1004f0000a003700606ce10004003a00005deb0088
:100500008b05e900fdff3e00040037006168e10053
:10051000010032000086eb000b00070019c7ba008b
:100520001905ba000e04e00003003a000a00e000da
:10053000e0ff3a0000000600fe07b2009e018800be
:100540008a047800f5ff3700395dba008b05e900b1
:100550000c003200295dba008b05e900080032006a
:100560000c00e00003003a00e284440032a0b40032
:10057000f5ff370019ddba008b05e900faff3a00f4
:100580008904e800e184440032a0b40000000600c1
:0c0590000040da000000fe000000050042
:020000040000fa
:10059c000600fa000080eb00000f7800f0ff270047
:1005ac0010079800f0ff270020079800113a8000f0
:1005bc00f00b200000816000600420007105200019
:1005cc0023742000804978008149780082497800a2
:1005dc002135800000fc2f0000806000b000b300cb
:1005ec002035880021358000f00f2c0080806000c1
:1005fc0000c02000010070002035880011368000fa
:10060c0000fc2f00008060003000b3001036880022
:10061c0011368000f00f2c000080600000a0a000bc
:10062c001036880051368000f00f2c00808060005e
:10063c00002021000100700050368800c136800077
:10064c0000fc2f00008060003001b300c036880031
:10065c00b1368000f00f2c0080806000004021003b
:10066c0001007000b0368800b136800000fc2f000d
:10067c00008060005001b300b0368800c1368000a5
:10068c00f00f2c00808060000060210001007000e1
:10069c00c0368800103a8000000178000260a0008b
:1006ac00600420007105200023742000804978002c
:1006bc00814978008249780011e1a9001021a90034
:1006cc0010c1a9001061a90011a1a90011e1a80095
:1006dc00f0ff22006008880084e0a90094e0a900e3
:1006ec009021ef009221ef00810c8000f03f2e0052
:1006fc0000806000800c8800810c800080ff2f003f
:10070c00008060006000b300800c88009381a8001a
:10071c009301a900910c800000fe2f000080600066
:10072c00c000b300900c880092e1a900f00f2000eb
:10073c00b00c8800f00f2000a00c88000080fa009c
:10074c00000006000400fa00000f78001107980062
:10075c001e007800e10f500005003a00ca62a800a4
:10076c0010002000a00c8800a00c8000b00c8800a9
:10077c001e007800e20f500005003a00ca62a80083
:10078c0080382100a00c8800a00c8000b00c8800e0
:10079c001e007800e30f500005003a00ca62a80062
:1007ac0000712200a00c8800a00c8000b00c880006
:1007bc001e007800e40f500005003a00ca62a80041
:1007cc0000e22400a00c8800a00c8000b00c880073
:1007dc001e007800e50f500005003a00ca62a80020
:1007ec0000532700a00c8800a00c8000b00c8800df
:1007fc001e007800e60f500005003a00ca62a800ff
:10080c0000c42900a00c8800a00c8000b00c88004b
:10081c001e007800e70f500005003a00ca62a800dd
:10082c0000352c00a00c8800a00c8000b00c8800b7
:10083c001e007800e80f500005003a00ca62a800bc
:10084c0000a62e00a00c8800a00c8000b00c880024
:10085c001e007800e90f500005003a00ca62a8009b
:10086c0000a02f00a00c8800a00c8000b00c880009
:10087c001e007800ea0f500005003a00ca62a8007a
:10088c000080eb00a00c8800a00c8000b00c88004d
:10089c000080fa00000006000000fa008060a90049
:1008ac008080a90081e0a9008020a9008040a900d7
:1008bc008220ef008200a9008420ef008400a900b0
:1008cc008620ef008820ef008a20ef008c20ef00bc
:1008dc008e20ef009420ef009400a9009620ef00ea
:1008ec009820ef009a20ef009c20ef009e20ef0054
:1008fc00a420ef00610580000000270001007000bb
:10090c00600588009660a8008660a9006020ef0052
:10091c006220ef006420ef006620ef006820ef00fb
:10092c002023ef002223ef002423ef002823ef00e5
:10093c000080eb00601988002a23ef003023ef00c1
:10094c00e622ef00e002a800e022a800e042a800a6
:10095c00e062a800e082a800e0a2a800e0c2a80023
:10096c00e0e2a800e402a900e422a900e442a90004
:10097c00e462a900e482a900e4a2a900e4c2a900ef
:10098c00e4e2a900c802a900c822a900c842a90033
:10099c00c862a900c882a900c8a2a900c8c2a9003f
:1009ac00c8e2a900c902a900c942a900c962a900ec
:1009bc00c982a900c9a2a900c9c2a900c9e2a9009b
:1009cc00ca02a900ca22a900ca42a900ca62a90087
:1009dc00ca82a900caa2a900cac2a900cae2a90077
:1009ec00cb22a900cb42a900cbc2a900cbe2a90023
:1009fc00cc22ef00e802a900e822a900e842a900f5
:100a0c00e862a900e882a900e8a2a900e8c2a8004f
:100a1c00ea22ef000080fa00000006000000fa0055
:100a2c00cc22ef00d422ef00dc22ef00e422ef0016
:100a3c00ec22ef00f422ef00c822ef0000002f00a0
:100a4c0080168800f0ff2000c0168800f00f2000f0
:100a5c0000178800f007200040178800c03c2000d9
:100a6c00801788005420ef005620ef005820ef002c
:100a7c005a20ef005c20ef005e20ef006c20ef00ae
:100a8c006e20ef007020ef007220ef007420ef005a
:100a9c007620ef00ce22ef00d622ef00de22ef0010
:100aac00e622ef00ee22ef00f622ef002a23ef0001
:100abc0030002000601988009660a8000080fa00c1
:100acc00000006003600f800809fbe00829fbe002a
:100adc00849fbe00869fbe000200fa000000eb005f
:100aec00000f780030048000680060000000e00017
:100afc00010032008660a9001017800061006000c0
:100b0c000000e00009003200004080000000e80016
:100b1c00004088000140800040062000808f50007b
:100b2c0002003a00400620000040880010178000a8
:100b3c0010178000620060000000e000030032002b
:100b4c00104080000000e800104088001017800062
:100b5c001140800000408000fafe07001017800052
:100b6c00000f780020178000000f78000080fa003a
:100b7c004f03be004f02be004f01be004f00be002f
:100b8c003600f90000400600000f78009e00780047
:100b9c0021408800ffff37000000fa006080200031
:100bac0080077800e0812000000188000080fa00b6
:100bbc00000006003600f8008020a9000000eb00c1
:100bcc00f1ff07003600f800f3ff07008040a90092
:100bdc0010002000ecff07003600f8008060a90030
:100bec0020002000e8ff07003600f8008080a900f4
:100bfc0030002000e4ff07000000fa0087ff070028
:100c0c0003000700100007000080fa000000060037
:100c1c000000fa000001eb006004200071052000c8
:100c2c00237420008049780081497800824978003b
:100c3c0000102300203a88004827ef004027ef00df
:100c4c000080fa00000006000000fa006105800038
:100c5c000000270001007000600588009660a80065
:100c6c008660a9006740a8006760a8000080fa00b1
:040c7c00000006006e
:020000040000fa
:100c8000060800002000000000000000040800002a
:100c90000200000002000000ffff0000000800004a
:0c0ca00004000000000000000000000044
:020000040000fa
:100cac000000fa00d4ff070039fe0700ffff3700f1
:0c0cbc000000fa000080fa0000000600b2
:020000040000fa
:020000040005f5
:0457f400ffff0000b3
:020000040000fa
:020000040005f5
:0457f800aef300000c
:020000040000fa
:020000040005f5
:0457fc007f3f0000eb
:00000001FF
